:100C5E005744313A2025352E316620430057443211
:100C6E003A2025352E31662043000000000000009A
:100C7E000000000000000000000000000000000066
:100C8E000000000000000000000000C0C0000000D6
:100C9E000000000000000000000000000000000046
:100CAE000000000000000000000000000000000036
:100CBE000000000000000000000000000000000026
:100CCE000000000000000000000000000000000016
:100CDE000000000000000000000000000000000006
:100CEE0000000000000000000000000000000000F6
:100CFE0000000000000000000000000000000000E6
:100D0E0080C0E0F0F8FCFCFEFF7F3F1F000000807B
:100D1E0080808080808080000000800000000000C5
:100D2E0000000000000000000000000000000000B5
:100D3E0000000000000000000000000000000000A5
:100D4E000000000000000000000000000000000095
:100D5E000000000000000000000000000000000085
:100D6E000000000000000000000000000000000075
:100D7E000000000000E0F8F8F0E000E0F8FEFF7F71
:100D8E003FDF6F773BBB9D9E9E9E9F3F3F3F3F3F0A
:100D9E007F7F7F7F7F3F3F1F0F0700000000000017
:100DAE000000000000000000000000000000000035
:100DBE000000000000000000000000000000000025
:100DCE000000000000000000000000000000000015
:100DDE000000000000000000000000000000000005
:100DEE0000000000000000000000000000000000F5
:100DFE000000F0FFFFFFFFFFFFFF3F8FE3F0F8FC67
:100E0E00FEFEFF7F7F7F7F7FFFFFFFFFFFFEFCFC6D
:100E1E00F8E0C00000000000000000D8DCFCFFFF7E
:100E2E00DDDCEE7E7EEEEEFE7E070000B0FEFEFE08
:100E3E00FFFFFDBEF6FCFFBFFBF838000000E0F838
:100E4E00FF3FFFFCFCFFFFFFFCFCFC1C0C00000046
:100E5E00FCFEFEFEFEFFFFFFFEFEFEFE0E0000008D
:100E6E000000000000000000000000000000000074
:100E7E0000FFFFFFFFFFFF03F8FEFFFFFF1FC3E1B1
:100E8E00F070F0E0C0F0F0F0E081F3F71F7FFFFFAD
:100E9E00FFFFFFFC6000000000E1FFFFFFFFBFBD92
:100EAE00FFFFFFF7F7FFFF83000098FFFFFFFFFF35
:100EBE00FDBD8BC7FFFFFFDF830000000FFFFF3F6D
:100ECE00F8FFFFBFBFBFBFFFFF7F000080C0FEFF68
:100EDE00FFFFFFBFFFFFEFDFFFFFEF00000000008F
:100EEE0000000000000000000000000000000000F4
:100EFE00011FFFFFFFFF00FFFFFFFFFFE0B3F7EF54
:100F0E00FFFF7E3DFFFF073F7FFFFF00E0F0F9FB95
:100F1E00FBF9F9600000000083C7C1E3E3E7E7E7F0
:100F2E00E7E7E7E7E7E3E1E0E0E7E7E3E3E1E3E371
:100F3E00E7E7E3E1E1E3E3E1E0E0E0E7E7E7E0E76D
:100F4E00E7E3E3E3E3E7E7E7E0E0E0E1E3E3E0E361
:100F5E00E7E7E7E7E7E3E3C0C18100000000000038
:100F6E000000000000000000000000000000000073
:100F7E000000030F1F3FF8E79F3FFFFFFFFEFCF847
:100F8E00F0F0F0E0E0F0F0F0F8FCFFFFFFFF7F3F45
:100F9E000F03000000000F1F3F7F7F7F7F7F7F7753
:100FAE007F7F7F7E7F7F7F777F7F777F7F7F7F7F54
:100FBE007F7F7F7F7F7B7F7F7F7F7F7F7F7F7F7F37
:100FCE007F7F7F7F7F7F7F7F7F7F7F7F7F7F7F7F23
:100FDE007F7F7F7F7F7F7F3F1F0600000000000026
:100FEE0000000000000000000000000000000000F3
:100FFE0000000000000001030300010303070F0FB0
:10100E000F0F1F1F1F0F0F0F070703010000000018
:10101E0000000000000000000000000000000000C2
:10102E0000000000000000000000000000000000B2
:10103E0000000000000000000000000000000000A2
:10104E000000000000000000000000000000000092
:10105E000000000000000000000000000000000082
:10106E0000000003050911FF118905C300E000F01F
:10107E0000F8000000000000004428FF11AA440000
:10108E000000000000000000000000000000000052
:10109E000000000000000000000000000000000042
:1010AE000000000000000000000000000000000032
:1010BE000000000000000000000000008301384422
:1010CE00829292740183000000000000007C44FFB5
:1010DE00017D7D7D7D017D7D7D7D017D7D7D7D0122
:1010EE00FF000000000000010001000100010001EE
:1010FE0000010000000000000000000101000000DF
:10110E0000000000000000000000000000000000D1
:10111E0000000000000000000000000000000000C1
:10112E0000000000000000000000000000000000B1
:10113E00000000000000000000000000010100009F
:10114E00000000000101000000000000000000018E
:10115E000101010101010101010101010101010171
:10116E000100000000000000000000000000000070
:10117E000000000000000000000000000000000061
:10118E0000F80808080808080800F8186080000031
:10119E0000806018F80000002020F8000000000019
:1011AE0000E0100808080810E00000002020F800F9
:1011BE0000000000000000000000000808080808F9
:1011CE008868180000000000000000000000000009
:1011DE000000000000000000000000000000000001
:1011EE0000000000000000000000000000000000F1
:1011FE0000000000000000000000000000000000E1
:10120E00007F01010101010100007F0000010618AD
:10121E00060100007F00000040407F4040000000BB
:10122E00001F2040404040201F00000040407F40F3
:10123E004000000000006000000000000060180682
:10124E00010000000000000000000000000000008F
:10125E000000000000000000000000000000000080
:10126E000000000000000000000000000000000070
:10127E000000000000000000000000000000000060
:10128E000000000000000040202020C00000E020F0
:10129E002020E000000040E0000000006020202040
:1012AE00E00000000000E0202020E0000000000030
:1012BE0040202020C0000040202020C00000000060
:1012CE000000000000000000000000000000000010
:1012DE000000000000000000000000000000000000
:1012EE0000000000000000000000000000000000F0
:1012FE0000000000000000000000000000000000E0
:10130E00000000000000000C0A0A090C00000F0883
:10131E0008080F000000080F080000000C0809095B
:10132E000E00000C00000F0909090F00000C000050
:10133E000C0A0A090C00000C0A0A090C0000000035
:10134E00000000000000000000000000000000008F
:10135E00000000000000000000000000000000007F
:10136E00000000000000000000000000000000006F
:10137E00000000000000000000000000000000005F
:10138E00000000000000000000000000000000004F
:10139E00000000000000000000000000000080803F
:1013AE00808080808080000000000000000000002F
:1013BE00000000000000000000000000000000001F
:1013CE00000000000000000000000000000000000F
:1013DE0000000000000000000000000000000000FF
:1013EE000000007F030C300C037F0000385454586B
:1013FE0000007C04047800003C40407C00000000AB
:10140E0000000000000000000000000000000000CE
:10141E000000000000000000000000000000FFAA15
:10142E00AAAA280800FF000000000000000000002B
:10143E00000000000000000000000000000000009E
:10144E0000000000000000000000007F030C300CC4
:10145E00037F0000264949493200007F020408102C
:02146E007F00FD
:102943004100A200910020202020202020202020D0
:102953002020202020200091112020202020202032
:102963002020202020202020200091222020202011
:1029730020202020202020202020202000913320F0
:102983002020202020202020202020202020200064
:042993000217000027
:10207300785AE2FFA20A9200A2099201122DB378C4
:102083005AE2FFA20A9200A2099201122D201226FF
:102093001D122CF7788E7407F20874FFF208740C83
:1020A300F2087478F27B7FE4FDFF1227ED122E7F96
:1020B300122CF712261D122CF7122E9A122E9AE4C6
:1020C300FBFDFF122B777B01E4FD7F10122B777B47
:1020D30002E4FD7F20122B777B03E4FD7F30122B7C
:1020E300777B04E4FD7F40122B777B05E4FD7F5073
:1020F300122B777B06E4FD7F60122B777B07E4FDD1
:102103007F70122B77122C4A7844EEF208EFF2FD1F
:10211300AC06E41216737B0A7AD779A3783C1215BE
:10212300687B337A93798878C3121477784C121AC0
:1021330005122C0D7844EEF208EFF2FDAC06E41222
:1021430016737B0A7AD779A3783C1215687B337AA6
:1021530093798878C31214777848121A05788E74A5
:10216300FFF208740CF208745EF2784CE2FC08E2A9
:10217300FD08E2FE08E2FF7891121A057BFE7A0061
:102183007922121ACE788E74FFF208740CF2087456
:102193006BF27848E2FC08E2FD08E2FE08E2FF7811
:1021A30091121A057BFE7A007933121ACE7BFE7ADE
:1021B3000079227D04E4FF122BC37BFE7A0079337E
:0A21C3007D06E4FF122BC30220BCCE
:102E6000EF1FAC0670011E4C600500000080F122CF
:042EB80000000022F4
:052EB200007F19DFFEA6
:012EB70022F8
:0B2E8E000000007F0B7EBEDEFEDFFCBC
:012E99002216
:0B2E9A007F367EC775C13FDEFEDFFC07
:012EA500220A
:0E2E700000007F057E347DC3DDFEDEFCDFFA50
:012E7E002231
:0E2E7F0000007F117ED07D1BDDFEDEFCDFFA41
:012E8D002222
:100046000000000000000000002F00000000070074
:10005600070000147F147F1400242A7F2A120062EE
:10006600640813230036495522500000050300009A
:1000760000001C224100000041221C000014083E22
:1000860008140008083E0808000000A060000008E8
:10009600080808080000606000000020100804023C
:1000A600003E5149453E0000427F400000426151FA
:1000B6004946002141454B31001814127F10002794
:1000C60045454539003C4A49493000017109050357
:1000D60000364949493600064949291E0000363688
:1000E60000000000563600000008142241000014EB
:1000F60014141414000041221408000201510906C8
:1001060000324959513E007C1211127C007F494948
:100116004936003E41414122007F4141221C007F79
:1001260049494941007F09090901003E4149497A87
:10013600007F0808087F0000417F41000020404101
:100146003F01007F08142241007F40404040007F6D
:10015600020C027F007F0408107F003E4141413EB1
:10016600007F09090906003E4151215E007F0919F9
:1001760029460046494949310001017F0101003FF6
:100186004040403F001F2040201F003F4038403F76
:1001960000631408146300070870080700615149DA
:1001A600454300007F41410000552A552A5500006D
:1001B60041417F00000402010204004040404040EB
:1001C600000001020400002054545478007F484483
:1001D600443800384444442000384444487F0038BA
:1001E6005454541800087E0901020018A4A4A47CE3
:1001F600007F080404780000447D400000408084AD
:100206007D00007F102844000000417F4000007CF4
:1002160004180478007C0804047800384444443800
:1002260000FC242424180018242418FC007C08044C
:10023600040800485454542000043F444020003C25
:100246004040207C001C2040201C003C4030403CAC
:10025600004428102844001CA0A0A07C004464543C
:100266004C44141414141414000000000000000080
:100276000000000000000000000000F80000000080
:10028600000000333000000000100C06100C0600C1
:10029600000000000000000040C07840C078400028
:1002A600043F04043F040400007088FC083000008A
:1002B600001820FF211E0000F008F000E0180000E2
:1002C60000211C031E211E0000F00888700000009B
:1002D6001E2123241927211010160E0000000000ED
:1002E6000000000000000000000000E0180402000A
:1002F600000000071820400000020418E00000007B
:100306000040201807000000404080F08040400078
:100316000202010F01020200000000F000000000CE
:100326000101011F010101000000000000000000A2
:1003360080B0700000000000000000000000000017
:1003460000010101010101010000000000000000A0
:10035600003030000000000000000000806018043B
:10036600006018060100000000E010080810E00018
:10037600000F102020100F00001010F800000000E1
:100386000020203F20200000007008080888700028
:1003960000302824222130000030088888483000A8
:1003A6000018202020110E000000C02010F80000C8
:1003B60000070424243F240000F808888808080061
:1003C6000019212020110E0000E010888818000076
:1003D600000F112020110E0000380808C838080048
:1003E6000000003F000000000070880808887000C8
:1003F600001C222121221C0000E010080810E00049
:100406000000312222110F00000000C0C0000000D1
:1004160000000030300000000000008000000000F6
:1004260000008060000000000000804020100800EE
:1004360000010204081020004040404040404000B7
:100446000404040404040400000810204080000092
:100456000020100804020100007048080808F00097
:100466000000003036010000C030C828E810E00067
:100476000718272423140B000000C038E0000000F2
:10048600203C23020227382008F88888887000005C
:10049600203F202020110E00C03008080808380030
:1004A600071820202010080008F808080810E000A7
:1004B600203F202020100F0008F88888E808100048
:1004C600203F20202320180008F88888E80810001C
:1004D600203F200003000000C03008080838000054
:1004E60007182020221E020008F808000008F80855
:1004F600203F210101213F20000808F808080000DC
:100506000020203F2020000000000808F80808000E
:10051600C08080807F00000008F888C02818080086
:10052600203F20012638200008F8080000000000BF
:10053600203F20202020300008F8F800F8F80800B6
:10054600203F003F003F200008F830C00008F808B0
:10055600203F200007183F00E01008080810E000C0
:100566000F10202020100F0008F808080808F000D7
:10057600203F210101010000E01008080810E000FA
:100586000F18242438504F0008F88888888870008F
:10059600203F2000030C302000708808080838002F
:1005A6000038202121221C00180808F80808180025
:1005B6000000203F2000000008F808000008F808A6
:1005C600001F202020201F000878880000C8380857
:1005D600000007380E010000F80800F80008F800CF
:1005E600033C0700073C0300081868808068180869
:1005F60020302C03032C30200838C800C8380800E7
:100606000000203F2000000010080808C838080035
:100616002038262120201800000000FE02020200D9
:100626000000007F40404000000C30C00000000089
:10063600000000010638C00000020202FE000000B1
:10064600004040407F000000000004020202040057
:100656000000000000000000000000000000000094
:10066600808080808080808000020204000000007C
:100676000000000000000000000080808080000074
:100686000019242222223F2008F800808000000062
:10069600003F112020110E00000000808080000025
:1006A600000E112020201100000000808088F80034
:1006B600000E112020103F20000080808080000066
:1006C600001F222222221300008080F088888818CA
:1006D6000020203F202000000000808080808000D5
:1006E600006B94949493600008F80080808000006A
:1006F600203F210000203F20008098980000000045
:100706000020203F20200000000000809898000074
:1007160000C08080807F000008F800008080800094
:10072600203F24022D302000000808F800000000B9
:100736000020203F20200000808080808080800074
:10074600203F20003F20003F808000808080000006
:10075600203F210000203F20000080808080000094
:10076600001F202020201F008080008080000000C5
:1007760080FFA12020110E000000008080808000F4
:10078600000E112020A0FF808080800080808000E5
:1007960020203F2120000100000080808080800012
:1007A6000033242424241900008080E08080000087
:1007B6000000001F202000008080000000808000D4
:1007C600001F202020103F20808080000080808035
:1007D60000010E30080601008080008000808080C5
:1007E6000F300C030C300F000080800080808000EA
:1007F6000020312E0E312000808080000080808015
:1008060080818E70180601000080808080808000C4
:100816000021302C2221300000000000807C0202E2
:1008260000000000003F404000000000FF00000004
:1008360000000000FF0000000002027C80000000B3
:100846000040403F000000000006010102020404CF
:1008560000000000000000002030AC6320180004F7
:100866000404FC0404040000000000000000000072
:100876000000000000000000226722121212404011
:1008860040407F4040404000000000000000000063
:10089600000000000000000000C0301F1010F00033
:1008A60000FF204080000000000000000000000063
:1008B6000000000000000000814021120C0300002F
:1008C60000FF000000030000000000000000000020
:1008D60000000000000000002030AC63201880906B
:1008E60090FF90494A4840000000000000000000C8
:1008F6000000000000000000226722121212404091
:1009060020130C142241F800000000000000000033
:100916000000000000000000008060F807101010C2
:10092600D0FFD010101000000000000000000000F2
:100936000000000000000000010000FF1008040B8A
:1009460008FF080B0408100000000000000000006B
:1009560000000000000000001060028C0000FE9203
:1009660092929292FE00000000000000000000003B
:10097600000000000000000004047E01407E4242A8
:100986007E427E42427E40000000000000000000E1
:1009960000000000000000001010D0FF9050205012
:1009A6004C434C5020404000000000000000000076
:1009B6000000000000000000040300FF004144584E
:1009C600414E605847404000000000000000000013
:1009D60000000000000000001060028C00FE02F221
:1009E60002FE00F800FF000000000000000000000A
:1009F600000000000000000004047E018047300F64
:100A060010270047807F0000000000000000000063
:100A16000000000000000000008060F807001CE0F5
:100A2600010600E01E0000000000000000000000BB
:100A36000000000000000000010000FF00804020D0
:100A4600130C13204080800000000000000000000E
:100A560000000000000000001060020CC004040446
:100A660004FC040404040000000000000000000070
:100A7600000000000000000004047C032020202069
:100A8600203F202020202000000000000000000061
:100A96000000000000000000044444445F44F444A5
:100AA60044445FC404040400000000000000000089
:100AB600000000000000000000108E402018070013
:100AC6004080403F00010E000000000000000000D2
:100AD600000000000000000040484848FF48484227
:100AE600A29E82A2C2BE000000000000000000001C
:100AF600000000000000000080601F207F4444408A
:100B06004F484848484F40000000000000000000E1
:100B1600000000000000000090523410FF10345214
:100B260080708F0808F80800000000000000000030
:100B36000000000000000000829A566322528E00D8
:100B46008040330C334080000000000000000000AD
:100B56000000000000000000008060F80700042488
:100B660024252624242404000000000000000000A0
:100B76000000000000000000010000FF000000F976
:100B86004949494949F900000000000000000000F9
:100B96000000000000000000000000FC5454565500
:100BA600545454FC00000000000000000000000047
:100BB60000000000000000004030000339414145BC
:100BC6005941417300083000000000000000000099
:100BD60000000000000000002424A4FEA32200223E
:100BE600CC0000FF00000000000000000000000034
:100BF6000000000000000000080601FF00010404D8
:100C0600040404FF020202000000000000000000CD
:100C16000000000000000000101010FF109008886F
:100C26008888FF888888080000000000000000000F
:100C360000000000000000000444827F0180804024
:100C4600432C1028468180000000000000000000B0
:080C5600000000000000000096
:102C8700F583E5822CF582E43583F583E493FF7DB4
:012C9700013B
:102C9800ED6004D2A68002C2A6C2A7E4FEC2A3EFDA
:102CA80030E704D2A48002C2A4D2A3EF25E0FF0E2D
:082CB800EEB408E9D2A7D2A690
:012CC00022F1
:10000300AC07ED24B0FFE4FD122C98EC54F0C4547B
:100013000F4410FF122C98EC540F4401FF022C984C
:102E2D00E4FD7F8D122C987F14122C987FAF022C0D
:012E3D0098FC
:102E3E00E4FD7F8D122C987F10122C987FAE022C01
:012E4E0098EB
:102CF700E4FCEC24B0FFE4FD122C98E4FF122C98BE
:102D07007F10122C98E4FB7D01E4FF122C980BEB4B
:082D1700B480F40CECB408DAFE
:012D1F002291
:0629AB00AA07A905AF0315
:1029B100E4FCEF24E0FBEAD3947F4004E4FA090944
:1029C100AF02AD01120003E4FC75F010EBA42CF58D
:1029D10082E435F0F583E582246EF582E5833402E5
:1029E100122C910CECB408E1AF02E904FD120003D2
:1029F100E4FC75F010EBA42CF582E435F0F583E5E9
:102A0100822476F582E5833402122C910CECB40811
:022A1100E122C0
:062DD3007850EFF2A905A3
:102DD9007F017E00AD0119ED600B7850E2FD7C00AA
:052DE90012199080EFBB
:012DEE0022C2
:0D26C5007851EFF208EDF208EAF208EBF2AE
:1026D200E47859F27857F27855E2FF7857E2FEC370
:1026E2009F507BC3EF9E14FD7F0A122DD37853E2D5
:1026F200FC08E2FDCFCDCFCECCCE1219A27C007D5C
:102702000A1219A27858EDF208E2702B7855E214F9
:10271200FF7857E2FEC39F501E08E270157856E21A
:10272200C3138EF0A4FF7851E22FFF08E2FD7B2055
:10273200802178597401F27856E2C313FF08E2FE51
:10274200EF8EF0A4FF7851E22FFF08E2FD7858E205
:0E2752002430FB1229AB7857E204F20226D99C
:012760002256
:102BC300788BEFF208EDF208EBF208EAF208E9F28B
:102BD300788DE2FB08E2FA08E2F9121938FB602962
:102BE300788BE2FF08E2FD1229AB18E22408F2E237
:102BF300D394784007E4F208E22402F2788FE224C7
:0A2C030001F218E23400F280C7224B
:042B7700A907AA05FB
:102B7B00E4788BF2120003E4FC75F040EBA4245EC6
:102B8B00F582E5F03408122C87788BE204F20CEC1A
:102B9B00B410E6AF01EA04FD120003E4FC75F0404B
:102BAB00EBA4247EF582E5F03408122C87788BE2B7
:072BBB0004F20CECB410E67B
:012BC20022F0
:0827ED00788BEFF2788DEBF21E
:1027F500E47892F208F2788EE2FF54077008EF133E
:102805001313541F8009788EE2131313541F047891
:1028150094F27894EDF2788EE2FF7894E2FDC39F0E
:102825005040788BE2FF120003E2FC788DE2FFEC6A
:10283500C39F5027788FE2FB08E2FA08E2F90808FF
:10284500E2FF2401F218E2FE3400F28F828E831239
:102855001951FF7D01122C980C80D07894E204F276
:0228650080B43D
:01286700224E
:10261D00D2A5122E70C2A5122E70D2A5E4FD7FAEEA
:10262D00122C98E4FF122C987F10122C987F4012D8
:10263D002C987F81122C987FCF122C987FA1122C71
:10264D00987FC8122C987FA6122C987FA8122C98D0
:10265D007F3F122C987FD3122C98E4FF122C987F79
:10266D00D5122C987F80122C987FD9122C987FF13F
:10267D00122C987FDA122C987F12122C987FDB1275
:10268D002C987F40122C987F20122C987F02122CB0
:10269D00987F8D122C987F14122C987FA4122C9851
:1026AD007FA6122C987FAF122C987FAF122C981208
:0826BD002CF7E4FDFF0200030D
:0D299700815ADC815C00815B00C10AC189AE
:102DB3004398508F9C300105438E158003438E1139
:102DC300300005438780800353877FD2AFD2AC2284
:102D2000439A508F9C300105438E148008E58E44F1
:102D30001054FBF58E300005438E088003538EF748
:092D400043A210D2AF43AF0122FF
:0C2EA600C2AC8F993099FDC299D2AC22C9
:102E4F00E4F5AF8F9BE59A30E1FB539AFD75AF0127
:012E5F002250
:102E0700121938FF600C122EA6740129F9E43AFA58
:032E170080EE2228
:102E1A00121938FF600C122E4F740129F9E43AFA9C
:032E2A0080EE2215
:0300230002286848
:10286800C0E0C0D075D000C000C006C00730985581
:10287800C298785CE599F2E2FF7818E6FE2400F841
:10288800EFF2785B7401F2C37818E6940118E694C5
:1028980000401974002EF8E2B4FF117818E62400FD
:1028A800F8E2B4860778177600087601781806E605
:1028B80018700106C37818E6940918E694004005D4
:1028C8007600087600D007D006D000D0D0D0E0320D
:03004300022ACFBF
:102ACF00C0E0C0D075D000C000C007E59A30E03B31
:102ADF00539AFE78A2E2FF24A3F8E59BF2EFC3948A
:102AEF0096400678A2E4F28022EFD3940140177447
:102AFF00A22FF8E2B40D0F78A2E224A3F8E2B40AF1
:102B0F00057847E204F278A2E204F2D007D000D0B1
:042B1F00D0D0E03200
:102B230041542B5443504C4B0D0A002B6F6B3D6F9C
:102B33006E0041542B454E544D0D0A0041542B5702
:102B4300414E4E0D0A0041542B5A0D0A0041542B9D
:102B530057534C510D0A002B6F6B3D002020202052
:102B630020202020202020202020202000457272B9
:042B73006F7221005C
:1021CD00E47847F278A2F27F2B122E4F7F2B122E3E
:1021DD004F7F2B122E4FE47847F278A2F2785FF200
:1021ED0008F2122E7F7F61122E4F122E9A7860E226
:1021FD002401F218E23400F208E2B45E0918E2B4E8
:10220D000104D20B800C7847E2B40203D38001C3E2
:10221D0050D8E47847F278A2F2785FF208F27BFFAB
:10222D007A2B7923122E1A122E9A7860E22401F25B
:10223D0018E23400F208E2645E700418E264016092
:10224D000C7847E2B40303D38001C350DA785E748F
:10225D0001F278A2E224FEFF785EE2FEC39F5031C8
:10226D0074A22EF8E2B40D2274A32EF8E2B40A1A69
:10227D00785EE2FF24A2F8742DF274A32FF8742D6A
:10228D00F274A42FF8742DF28007785EE204F280C8
:10229D00C1788274FFF208742BF208742EF27BFE63
:1022AD007A0079A3122564D3E99400EA94004004DE
:1022BD00D20B8002C20BE47847F278A2F2785FF27B
:1022CD0008F27BFF7A2B7935122E1A122E9A78602E
:1022DD00E22401F218E23400F208E2B45E0918E2D9
:1022ED00B40104D20B800C7847E2B40303D3800110
:0822FD00C350D8A20BE433FF2B
:0123050022B5
:10230600E47847F278A2F27F2B122E4F7F2B122E03
:102316004F7F2B122E4FE47847F278A2F2785FF2C5
:1023260008F2122E7F7F61122E4F122E9A7860E2EB
:102336002401F218E23400F208E2645E700418E246
:102346006401600C7847E2B40203D38001C350DA1B
:10235600E47847F278A2F2785FF208F27BFF7A2BF4
:10236600793F122E1A122E9A7860E22401F218E2B0
:102376003400F208E2645E700418E26401600C78CE
:1023860047E2B40303D38001C350DA787874FEF2CF
:10239600087400F20874B6F208E4F2087410F27BCE
:1023A600017A0079001228D8E47861F2785E04F2A6
:1023B600785EE2FFC39410501B74002FF582E4345C
:1023C60000F583E0642C600C7861E204F2785EE24A
:1023D60004F280DC7861E204785EF2785EE2FFC3A4
:1023E6009410501274002FF582E43400F5837420A3
:1023F600F0E204F280E5E47847F278A2F2785FF240
:1024060008F27BFF7A2B7935122E1A122E9A7860F3
:10241600E22401F218E23400F208E2645E70041865
:10242600E26401600C7847E2B40303D38001C35031
:02243600DA22A8
:102A1300E47847F278A2F27F2B122E4F7F2B122EEF
:102A23004F7F2B122E4FE47847F278A2F2785FF2B1
:102A330008F2122E7F7F61122E4F122E9A7860E2D7
:102A43002401F218E23400F208E2645E700418E232
:102A53006401600C7847E2B40203D38001C350DA07
:102A6300E47847F278A2F2785FF208F27BFF7A2BE0
:052A73007949022E1A52
:101EE000E47847F278A2F27F2B122E4F7F2B122E2E
:101EF0004F7F2B122E4FE47847F278A2F2785FF2F0
:101F000008F2122E7F7F61122E4F122E9A7860E215
:101F10002401F218E23400F208E2645E700418E270
:101F20006401600C7847E2B40203D38001C350DA45
:101F3000E4785EF278A2E2FF785EE2FEC39F500E84
:101F400074A32EF8742CF2785EE204F280E6E47852
:101F500047F278A2F2785FF208F27BFF7A2B795091
:101F6000122E1A122E9A7860E22401F218E234003E
:101F7000F208E2645E700418E26401600C7847E2E3
:101F8000B40303D38001C350DA785E7401F278A2FF
:101F9000E224FEFF785EE2FEC39F503174A22EF869
:101FA000E2B40D2274A32EF8E2B40A1A785EE2FFBE
:101FB00024A2F8742DF274A32FF8742DF274A42FB8
:101FC000F8742DF28007785EE204F280C1788274A2
:101FD000FFF208742BF208745AF27BFE7A0079A3A0
:101FE000122564D3E99400EA9400787874FF402EB7
:101FF000F208742BF208745FF208E4F2087410F22D
:102000007B017A0079001228D8787874FEF208747F
:1020100000F20874ADF208E4F2087407800FF208C9
:10202000742BF2087470F208E4F2087410F27B0169
:102030007A0079001228D8E47847F278A2F2785F23
:10204000F208F27BFF7A2B7935122E1A122E9A782B
:1020500060E22401F218E23400F208E2645E7004E7
:1020600018E26401600C7847E2B40303D38001C333
:0320700050DA2221
:0629A40081740181730142
:10002600D2860000000000D2870000000000C286D1
:0D0036000000000000C28700000000002252
:102DEF00C2870000000000C2860000000000D287EA
:082DFF000000000000D2862252
:042A7800788BEFF276
:102A7C00788D740AF208EFF2E4788CF2788EE230FA
:102A8C00E70778747401F28004E47874F2122D92E2
:102A9C00788EE2FF25E0F2788CE204F2E2C36480E7
:102AAC00948840D8122D707873E2B40115122DEF72
:102ABC00788DE2600DE214F2120026788BE2FF12A0
:022ACC002A7866
:012ACE0022E5
:102D92007874E27004C2868002D28600D287000074
:102DA200000000000000C2870000000000000000D8
:012DB20022FE
:082CC1007871EFF2E47874F27F
:102CC900E4788CF218F2788CE2FF25E0F2122D708C
:102CD9007873E2B40105788CE204F2788BE204F2AD
:0D2CE900E2C3940840E0122D92788CE2FFC7
:012CF60022BB
:102D7000D28678737401F2D2870000000000000050
:102D800000A286E433F200C28700000000000000C9
:022D900000221F
:102C0D00120026E4FF122A787F27122A7812002656
:102C1D007F01122A78122CC5122CC17870EFF27830
:102C2D00747401F2122CC97872EFF2122DEF7870D4
:0D2C3D00E2FE08E27C002400FFEC3EFE22D7
:102C4A00120026E4FF122A787F26122A781200261A
:102C5A007F01122A78122CC5122CC17870EFF278F3
:102C6A00747401F2122CC97872EFF2122DEF787097
:0D2C7A00E2FE08E27C002400FFEC3EFE229A
:0A2438007862EBF208EAF208E9F21C
:10244200786B742FF2E4786AF218F218F218F21824
:1024520004F2187407F2786B742FF2E408F208742D
:1024620005F2E408F27862E2FB08E2FA08E2F9789F
:102472006DE2F582758300121951FD7C00786EE2DF
:10248200FB74807E00A803088006CEA2E713CE1359
:10249200D8F8FFEE5CFEEF5D4E7023786DE2D394C8
:1024A20000401B786BE214F2EB94075007786EE25F
:1024B20004F280B1E4786EF218E214F280A7786B2D
:1024C200E224F808F2786CE26050087405F2786D44
:1024D200E2FFC394FF503C74642FF8E230E70F78B8
:1024E2006DE2D394004007786F7401F28004E478BF
:1024F2006FF2786DE2FF2465F8C000E225E0D000BB
:10250200F2786FE2FE74652FF8E22EF2786DE21433
:10251200F280BB786CE214F280ABE4786DF2786200
:10252200E2FB08E2FA08E2F9786DE2FFE92FF9E44A
:102532003AFA121938FE74652FF8E26E12197E7893
:102542006DE204F2E2B406D6786BE2D3940840035B
:102552000224477862E2FB08E2FA08E2F91219382B
:01256200FF79
:012563002255
:101470000216E1E86480F8E933E83360110460F0B3
:10148000ED33EC337009E8FCE9FDEAFEEBFF2204E2
:1014900060DED3EB9FEA9EE99DE8C2E78CF0C2F7DD
:1014A00095F0400CE8CCF8E9CDF9EACEFAEBCFFBA9
:1014B0001216AC85D0F05804700320D5B3E8047040
:1014C000075002B2D50216EB92D5EC0460F7E4CCDB
:1014D000C0E0C398F8603B94186008400DD0E0FB72
:1014E0000216C3E4FBFAC9FC8028E830E406E4C92C
:1014F000FBE4CAFCE830E305E4C9CACBFCE85407C6
:101500006010F8C3E913F9EA13FAEB13FBEC13FCD0
:10151000D8F130F52FC3E49CFCEF9BFFEE9AFEED73
:1015200099FDD0E0FBEF4E4D4C701222DB0302160A
:10153000E8EC2CFCEF33FFEE33FEED33FDED30E74E
:10154000EB0216C3EF2BFFEE3AFEED39FDD0E0FBC8
:1015500050130BBB00030216EBED13FDEE13FEEF71
:0815600013FFEC13FC0216C39B
:10156800EC4D6011E8497017ED33EC3304600DE47D
:10157800FCFFFEFD22E933E8330470F80216E1129D
:1015880016AC58046009E4CC24815006285009029E
:1015980016EB2840030216E8C0E0EB4A7044B98015
:1015A80006D0E0FB0216D7EF4E701CBD8008EBFF9B
:1015B800EAFEE9FD80EBE98DF0A4FEE5F0021651A4
:1015C800E9CDF9EAFEEBFFEF89F0A4FCE5F0CE895E
:1015D800F0A42EFFE435F0CD89F0A42DFEE435F01B
:1015E8008067EF4E7005BD80D780C3EF8BF0A4AC49
:1015F800F0EE8BF0A42CFCE435F0F8EF8AF0A42C84
:10160800E5F038FCE433CB8DF0A42CFCE5F03BF896
:10161800EE8AF0A42CFCE5F038F8E433CF89F0A486
:101628002CFCE5F038CF3400CE89F0A42FFFE5F08C
:101638003EFEE433C98DF0A42EFEE5F039CD8AF0E4
:10164800A42FFFE5F03EFEE43DFD33D0E0FB50075C
:101658000BBB000F0216EBEC2CFCEF33FFEE33FE56
:06166800ED33FD0216C384
:10166E0075F020800E75F010800575F0087D007EF7
:10167E00007F003392D530D5031219F7EC334010AA
:10168E00EF33FFEE33FEED33FDEC33FCD5F0ED2200
:0E169E00E5F0247EA2D513CC92E7CDCEFF223C
:101A7200E508248EF8E2050822788B300702788E7A
:101A8200E475F001121A110219382000EB7F2ED2F0
:101A9200008018EF540F2490D43440D4FF30040B4C
:101AA200EF24BFB41A0050032461FFE50960021558
:101AB20009050CE50C7002050B30070D788BE475F7
:101AC200F001121A11EF02197E022D497403D20796
:101AD2008003E4C207F508788B121A21E4F509F5B0
:101AE2000BF50CE50960077F20121AAD80F5750A27
:101AF200FFC201C200C202C203C205C206C208126C
:101B02001A7BFF700D3007057F00121ABEAF0CAEB4
:101B12000B22B4255FC2D5C204121A7BFF24D0B4B3
:101B22000A00501A75F00A780930D50508B6FF0187
:101B320006C6A426F620D5047002D20380D924CF8B
:101B4200B41A00EF5004C2E5D204021DAAD20180E9
:101B5200C6D20080C0D20280BCD2D580BAD2058063
:101B6200B47F20121AAD2002077401B5090040F1BA
:101B7200121A72FF121AAD021AE5D208D206809525
:101B8200121A72FB121A72FA121A72F94A4B700680
:101B920079A17A1E7BFF20022EE509602A7E008E43
:101BA2008275830012195160060EEE650A70F0C24A
:101BB200D5EBC0E0EAC0E0E9C0E0EE121E0AD0E0D8
:101BC200F9D0E0FAD0E0FB121938FF60AAEBC0E0CE
:101BD200EAC0E0E9C0E0121AADD0E02401F9D0E099
:101BE2003400FAD0E0FBE50A0460DCD50AD980872C
:101BF200D20280A2121DED60F7E50A7001041216EE
:101C0200F6A90A600DE50A600914F50A121E94EF9E
:101C120060F3EA30E702F404C3995077EAF4250A44
:101C22000430E701E404F50A800D121DED60C1EAFB
:101C3200050A250A1216F6EA78A1F230E701E42530
:101C42000A04D50A0420050114121E0AE4C0E01297
:101C52001E9478A1E2601320E70714F2121A95800D
:101C62002204F2D0E014C0E07F00121A95E50A6067
:101C720007121A8C150A800B300503121A8CD0E059
:101C8200021AE5D0E00480C5121DED60A0E50A0449
:101C92001216F678A1EAF2E50A2005026001042490
:0C1CA20004121E0A74FF04C0E0121E941D
:101CAE00121A95E50A2005026003121A8CD0E0B5CF
:101CBE000AE87F45121A9F78A1E27F2B30E7047F56
:101CCE002DF404C0E0121AADD0E075F00A84C0F015
:101CDE00121A96D0E0121A96021AE579108002793D
:101CEE0008C206C2088008D2D5790A8004790AC2D1
:101CFE00D5E50A047002F50AE4FAFDFEFF121A7227
:101D0E00FC7B08200113121A72FD7B1030000A12A0
:101D1E001A72FE121A72FF7B20EC3382D592D550C6
:101D2E0013C3E43000069FFFE49EFEE42001039DF2
:101D3E00FDE49CFCE4CBF8C201EC700CCFCECDCC14
:101D4E00E824F8F870F38017C3EF33FFEE33FEED9F
:101D5E0033FDEC33FCEB33FB994002FB0FD8E9EB80
:101D6E00300105F8D0E0C448B201C0E00AEC4D4E97
:101D7E004F78207B0070C2EAB50A0040BCC0E0126A
:101D8E001E0CD0F0D0E0200104C4C0E0C4B201C0EB
:101D9E00F0121A96D0F0D5F0EB021AE5121A2A1BA1
:101DAE0082531CE9581B534C1B4F421CED4F1CF524
:101DBE00441CF5491B68431CFB551C2C461C8A45CC
:101DCE001BF6471EC1501B572D1B5B2E1B7E2B1B5C
:101DDE005F231B7C201EAA2A1B174800001B76E5DA
:101DEE000AB4FF03750A06121A72FC121A72FD1259
:101DFE001A72FE121A72FF789A021725790AA2D564
:101E0E00200314300509B910020404B9080104A214
:101E1E00D52006025001042002689202B509005036
:101E2E0034C0E07F203003197F30A20272067205A3
:101E3E00500F121E63C202C206C205C2087F308056
:101E4E000F300503E9C0E0121AAD300503D0E0F9FA
:101E5E00D0E0B509CC3005177F30B9100C121AAD91
:101E6E007F583004077F788003B90803121AAD300B
:101E7E0002057F2D021AAD7F202008F87F2B200649
:101E8E00F322920280CF7F00B407005005249AF807
:101E9E00E2FF22286E756C6C2900D201121A723084
:101EAE0001F8C201780930D50108F6021B172D5032
:101EBE00434958121A722403B405004001E4901EDF
:101ECE00BC93121A9E743A121A9ED203750904021A
:021EDE001CE9FD
:1016AC00E9D2E7C933E833F892D5EDD2E7CD33EC84
:0716BC0033FC5002B2D522FD
:1016C300EC30E7100FBF000C0EBE00080DBD000488
:1016D3000BEB6014A2D5EB13FCED92E7FD2274FF34
:1016E300FCFDFEFF22E480F8A2D574FF13FC7D808D
:0316F300E480EFA1
:1016F600F920E72824F950037907E4F42402FB18BB
:10170600DBFDE224FB5014E9600DE4F218E204F27A
:0F171600B40A08E4F2D9F57401F20A22C2D5220E
:10172500ED33EC3392D5FA602AB4FF33EDC2E77B93
:10173500FF60067A17794AE4227A17795320D5048F
:101745007A17794E224E614E002B494E46002D499F
:101755004E4600E47A08F208DAFC7B00740722E8BA
:10176500C0E0ECC0E0EDC0E0EEC0E0EFC0E0EA753F
:10177500F010A4CAABF075F04DA42BFBE435F0FCDA
:10178500EA2410FAEB34C5FBEC34D9FCEDC2E7FFD3
:1017950075F056A4F42411C5F0F434C58FF0A42ACD
:1017A500E5F03BE43CF220E7141218F8D0E0FFD056
:1017B500E0FED0E0FDD0E0FC12182B8014F40412FA
:1017C50018F8D0E0FFD0E0FED0E0FDD0E0FC121527
:1017D50068D0E0F8E2FAEDD2E7CD33EC332482FBB2
:1017E500E4C3CF33CFCE33CECD33CD33DBF37B075D
:1017F50075F00A846004F2081B0AE5F0F2088FF020
:10180500740AA4FFACF08EF0740AA42CFEACF05060
:10181500010C8DF0740AA42CFDE435F0F208DBDE32
:0318250074072223
:101828000216EBEC5D046005E8590470030216E14A
:101838001216AC580460F6EC4860F2EC7004FDFE39
:10184800FF22C860DB2481C85009C3986002500693
:101858000216E89850CAF582E9294B4A7005AB820E
:101868000216D775F0007C1A7880C3EF9BEE9AEDCC
:1018780099400DC3EF9BFFEE9AFEED99FDE842F00B
:10188800DC23ACF0D0E0FFD0E0FED0E0FDAB82205E
:10189800E7101BEB60BAEC2CFCEF33FFEE33FEEDE8
:1018A80033FD0216C3E803F830E705C0F075F00011
:1018B800EF2FFFEE33FEED33FD40B830E7C280AACC
:1018C8003F8000004120000042C80000447A000028
:1018D800461C400047C35000497424004B189680AA
:1018E8004CBEBC205A0E1BCA6753C21C749DC5AEA1
:1018F800FB60065407601C2323121926EB5438603A
:1019080009121912121921121568ECF8EDF9EEFAFC
:10191800EFCB22EB12192180F1543803241C9018C4
:10192800C8FE93FC0EEE93FD0EEE930ECE93FF22AF
:0300000002276173
:0C276100787FE4F6D8FD7581210227A8DE
:10193800BB010689828A83E0225002E722BBFE02AD
:09194800E32289828A83E49322E0
:10195100BB010CE58229F582E5833AF583E022504B
:1019610006E92582F8E622BBFE06E92582F8E22295
:0D197100E58229F582E5833AF583E49322AF
:10197E00BB010689828A83F0225002F722BBFE0148
:02198E00F32242
:10199000EF8DF0A4A8F0CF8CF0A428CE8DF0A42E6B
:0219A000FE2225
:1019A200BC000BBE0029EF8DF084FFADF022E4CC29
:1019B200F875F008EF2FFFEE33FEEC33FCEE9DECF2
:1019C200984005FCEE9DFE0FD5F0E9E4CEFD22ED38
:1019D200F8F5F0EE8420D21CFEADF075F008EF2F82
:1019E200FFED33FD4007985006D5F0F222C398FD73
:0519F2000FD5F0EA2210
:0E19F700C3E49FFFE49EFEE49DFDE49CFC2201
:0C1A0500ECF208EDF208EEF208EFF2221D
:101A1100FAE2FB0808E2F925F0F218E2CA3AF222EA
:091A2100EBF208EAF208E9F222F6
:101A2A00D083D082F8E4937012740193700DA3A34B
:101A3A0093F8740193F5828883E47374029368605F
:061A4A00EFA3A3A380DF5F
:102D4900EFB40A07740D122D54740A309811A8991A
:102D5900B8130CC2983098FDA899C298B811F630EA
:072D690099FDC299F59922C2
:1028D8007875EBF208EAF208E9F2E4787DF208F29A
:1028E800787B08E2FF24FFF218E2FE34FFF2EF4E95
:1028F800603E7878E2FB08E2FA08E2F9121938FF3C
:102908007875E2FB08E2FA08E2F9787D08E2FD242E
:1029180001F218E2FC3400F28D828C83EF121A5017
:10292800EF60BD787AE22401F218E23400F280B058
:0B2938007875E2FB08E2FA08E2F922E1
:10256400787FEBF208EAF208E9F208E2FB08E2FA03
:1025740008E2F9121938700302260B787FE2FB088F
:10258400E2FA08E2F9121938700302261608E2F991
:1025940008E2FA08E208C9F208EAF208E9F2787FE8
:1025A400E2F908E2FA08E27888C9F208EAF208E9EE
:1025B400F27885E2FB08E2FA08E2F9121938FF60C2
:1025C4002708E2FB08E2FA08E2F91219386F7018DA
:1025D4007887E22401F218E23400F2788AE22401D6
:1025E400F218E23400F280C97885E2FB08E2FA08C6
:1025F400E2F91219387002800E7881E22401F2188F
:10260400E23400F202257F787FE2FB08E2FA08E276
:09261400F9227B007A0079002212
:10276D00022073E493A3F8E493A34003F68001F2EF
:10277D0008DFF48029E493A3F85407240CC8C3336D
:10278D00C4540F4420C8834004F456800146F6DF3C
:10279D00E4800B0102040810204080902943E47E60
:1027AD00019360BCA3FF543F30E509541FFEE49331
:1027BD00A360010ECF54C025E060A840B8E493A3F8
:1027CD00FAE493A3F8E493A3C8C582C8CAC583CA23
:1027DD00F0A3C8C582C8CAC583CADFE9DEE780BEDB
:0129AA00002C
:101A5000F8BB010DE58229F582E5833AF583E8F0CC
:101A6000225006E92582C8F622BBFE05E92582C878
:021A7000F22260
:00000001FF
